{
  "_format": "hh-sol-artifact-1",
  "contractName": "Identeefi",
  "sourceName": "contracts/Identeefi.sol",
  "abi": [
    {
      "inputs": [
        {
          "internalType": "string",
          "name": "_serialNumber",
          "type": "string"
        },
        {
          "internalType": "string",
          "name": "_actor",
          "type": "string"
        },
        {
          "internalType": "string",
          "name": "_location",
          "type": "string"
        },
        {
          "internalType": "string",
          "name": "_timestamp",
          "type": "string"
        },
        {
          "internalType": "bool",
          "name": "_isSold",
          "type": "bool"
        }
      ],
      "name": "addProductHistory",
      "outputs": [],
      "stateMutability": "nonpayable",
      "type": "function"
    },
    {
      "inputs": [
        {
          "internalType": "string",
          "name": "_serialNumber",
          "type": "string"
        }
      ],
      "name": "getProduct",
      "outputs": [
        {
          "internalType": "string",
          "name": "",
          "type": "string"
        },
        {
          "internalType": "string",
          "name": "",
          "type": "string"
        },
        {
          "internalType": "string",
          "name": "",
          "type": "string"
        },
        {
          "internalType": "string",
          "name": "",
          "type": "string"
        },
        {
          "internalType": "string",
          "name": "",
          "type": "string"
        },
        {
          "components": [
            {
              "internalType": "uint256",
              "name": "id",
              "type": "uint256"
            },
            {
              "internalType": "string",
              "name": "actor",
              "type": "string"
            },
            {
              "internalType": "string",
              "name": "location",
              "type": "string"
            },
            {
              "internalType": "string",
              "name": "timestamp",
              "type": "string"
            },
            {
              "internalType": "bool",
              "name": "isSold",
              "type": "bool"
            }
          ],
          "internalType": "struct Identeefi.ProductHistory[]",
          "name": "",
          "type": "tuple[]"
        }
      ],
      "stateMutability": "view",
      "type": "function"
    },
    {
      "inputs": [],
      "name": "owner",
      "outputs": [
        {
          "internalType": "address",
          "name": "",
          "type": "address"
        }
      ],
      "stateMutability": "view",
      "type": "function"
    },
    {
      "inputs": [
        {
          "internalType": "string",
          "name": "_name",
          "type": "string"
        },
        {
          "internalType": "string",
          "name": "_brand",
          "type": "string"
        },
        {
          "internalType": "string",
          "name": "_serialNumber",
          "type": "string"
        },
        {
          "internalType": "string",
          "name": "_description",
          "type": "string"
        },
        {
          "internalType": "string",
          "name": "_image",
          "type": "string"
        },
        {
          "internalType": "string",
          "name": "_actor",
          "type": "string"
        },
        {
          "internalType": "string",
          "name": "_location",
          "type": "string"
        },
        {
          "internalType": "string",
          "name": "_timestamp",
          "type": "string"
        }
      ],
      "name": "registerProduct",
      "outputs": [],
      "stateMutability": "nonpayable",
      "type": "function"
    }
  ],
  "bytecode": "0x608060405234801561001057600080fd5b506118c8806100206000396000f3fe608060405234801561001057600080fd5b506004361061004c5760003560e01c80633e2357e31461005157806368111cce1461006d5780638da5cb5b146100a2578063b4b33ef5146100c0575b600080fd5b61006b60048036038101906100669190610df1565b6100dc565b005b61008760048036038101906100829190610f87565b61017b565b60405161009996959493929190611213565b60405180910390f35b6100aa6107f7565b6040516100b791906112df565b60405180910390f35b6100da60048036038101906100d59190611326565b61081b565b005b60006001876040516100ee919061144d565b908152602001604051809103902090508881600001908161010f9190611670565b50878160030190816101219190611670565b50868160010190816101339190611670565b50858160020190816101459190611670565b50848160040190816101579190611670565b506000816006018190555061017087858585600061081b565b505050505050505050565b6060806060806060806000600188604051610196919061144d565b90815260200160405180910390206006015467ffffffffffffffff8111156101c1576101c0610cc6565b5b6040519080825280602002602001820160405280156101fa57816020015b6101e7610c66565b8152602001906001900390816101df5790505b50905060005b600189604051610210919061144d565b90815260200160405180910390206006015481101561047e57600189604051610239919061144d565b908152602001604051809103902060050160006001836102599190611771565b81526020019081526020016000206040518060a00160405290816000820154815260200160018201805461028c90611493565b80601f01602080910402602001604051908101604052809291908181526020018280546102b890611493565b80156103055780601f106102da57610100808354040283529160200191610305565b820191906000526020600020905b8154815290600101906020018083116102e857829003601f168201915b5050505050815260200160028201805461031e90611493565b80601f016020809104026020016040519081016040528092919081815260200182805461034a90611493565b80156103975780601f1061036c57610100808354040283529160200191610397565b820191906000526020600020905b81548152906001019060200180831161037a57829003601f168201915b505050505081526020016003820180546103b090611493565b80601f01602080910402602001604051908101604052809291908181526020018280546103dc90611493565b80156104295780601f106103fe57610100808354040283529160200191610429565b820191906000526020600020905b81548152906001019060200180831161040c57829003601f168201915b505050505081526020016004820160009054906101000a900460ff1615151515815250508282815181106104605761045f6117a5565b5b60200260200101819052508080610476906117d4565b915050610200565b5060018860405161048f919061144d565b90815260200160405180910390206001016001896040516104b0919061144d565b908152602001604051809103902060000160018a6040516104d1919061144d565b908152602001604051809103902060030160018b6040516104f2919061144d565b908152602001604051809103902060020160018c604051610513919061144d565b90815260200160405180910390206004018585805461053190611493565b80601f016020809104026020016040519081016040528092919081815260200182805461055d90611493565b80156105aa5780601f1061057f576101008083540402835291602001916105aa565b820191906000526020600020905b81548152906001019060200180831161058d57829003601f168201915b505050505095508480546105bd90611493565b80601f01602080910402602001604051908101604052809291908181526020018280546105e990611493565b80156106365780601f1061060b57610100808354040283529160200191610636565b820191906000526020600020905b81548152906001019060200180831161061957829003601f168201915b5050505050945083805461064990611493565b80601f016020809104026020016040519081016040528092919081815260200182805461067590611493565b80156106c25780601f10610697576101008083540402835291602001916106c2565b820191906000526020600020905b8154815290600101906020018083116106a557829003601f168201915b505050505093508280546106d590611493565b80601f016020809104026020016040519081016040528092919081815260200182805461070190611493565b801561074e5780601f106107235761010080835404028352916020019161074e565b820191906000526020600020905b81548152906001019060200180831161073157829003601f168201915b5050505050925081805461076190611493565b80601f016020809104026020016040519081016040528092919081815260200182805461078d90611493565b80156107da5780601f106107af576101008083540402835291602001916107da565b820191906000526020600020905b8154815290600101906020018083116107bd57829003601f168201915b505050505091509650965096509650965096505091939550919395565b60008054906101000a900473ffffffffffffffffffffffffffffffffffffffff1681565b600060018660405161082d919061144d565b90815260200160405180910390209050806006016000815480929190610852906117d4565b91905055506040518060a0016040528082600601548152602001868152602001858152602001848152602001831515815250816005016000836006015481526020019081526020016000206000820151816000015560208201518160010190816108bc9190611670565b5060408201518160020190816108d29190611670565b5060608201518160030190816108e89190611670565b5060808201518160040160006101000a81548160ff02191690831515021790555090505061094f6040518060400160405280600681526020017f69313a20257300000000000000000000000000000000000000000000000000008152508260060154610b05565b610a326040518060400160405280601981526020017f50726f6475637420486973746f72792061646465643a202573000000000000008152508260050160008460060154815260200190815260200160002060010180546109af90611493565b80601f01602080910402602001604051908101604052809291908181526020018280546109db90611493565b8015610a285780601f106109fd57610100808354040283529160200191610a28565b820191906000526020600020905b815481529060010190602001808311610a0b57829003601f168201915b5050505050610ba1565b610afd6040518060400160405280600c81526020017f50726f64756374203a2025730000000000000000000000000000000000000000815250826000018054610a7a90611493565b80601f0160208091040260200160405190810160405280929190818152602001828054610aa690611493565b8015610af35780601f10610ac857610100808354040283529160200191610af3565b820191906000526020600020905b815481529060010190602001808311610ad657829003601f168201915b5050505050610ba1565b505050505050565b610b9d8282604051602401610b1b92919061182b565b6040516020818303038152906040527fb60e72cc000000000000000000000000000000000000000000000000000000007bffffffffffffffffffffffffffffffffffffffffffffffffffffffff19166020820180517bffffffffffffffffffffffffffffffffffffffffffffffffffffffff8381831617835250505050610c3d565b5050565b610c398282604051602401610bb792919061185b565b6040516020818303038152906040527f4b5c4277000000000000000000000000000000000000000000000000000000007bffffffffffffffffffffffffffffffffffffffffffffffffffffffff19166020820180517bffffffffffffffffffffffffffffffffffffffffffffffffffffffff8381831617835250505050610c3d565b5050565b60008151905060006a636f6e736f6c652e6c6f679050602083016000808483855afa5050505050565b6040518060a00160405280600081526020016060815260200160608152602001606081526020016000151581525090565b6000604051905090565b600080fd5b600080fd5b600080fd5b600080fd5b6000601f19601f8301169050919050565b7f4e487b7100000000000000000000000000000000000000000000000000000000600052604160045260246000fd5b610cfe82610cb5565b810181811067ffffffffffffffff82111715610d1d57610d1c610cc6565b5b80604052505050565b6000610d30610c97565b9050610d3c8282610cf5565b919050565b600067ffffffffffffffff821115610d5c57610d5b610cc6565b5b610d6582610cb5565b9050602081019050919050565b82818337600083830152505050565b6000610d94610d8f84610d41565b610d26565b905082815260208101848484011115610db057610daf610cb0565b5b610dbb848285610d72565b509392505050565b600082601f830112610dd857610dd7610cab565b5b8135610de8848260208601610d81565b91505092915050565b600080600080600080600080610100898b031215610e1257610e11610ca1565b5b600089013567ffffffffffffffff811115610e3057610e2f610ca6565b5b610e3c8b828c01610dc3565b985050602089013567ffffffffffffffff811115610e5d57610e5c610ca6565b5b610e698b828c01610dc3565b975050604089013567ffffffffffffffff811115610e8a57610e89610ca6565b5b610e968b828c01610dc3565b965050606089013567ffffffffffffffff811115610eb757610eb6610ca6565b5b610ec38b828c01610dc3565b955050608089013567ffffffffffffffff811115610ee457610ee3610ca6565b5b610ef08b828c01610dc3565b94505060a089013567ffffffffffffffff811115610f1157610f10610ca6565b5b610f1d8b828c01610dc3565b93505060c089013567ffffffffffffffff811115610f3e57610f3d610ca6565b5b610f4a8b828c01610dc3565b92505060e089013567ffffffffffffffff811115610f6b57610f6a610ca6565b5b610f778b828c01610dc3565b9150509295985092959890939650565b600060208284031215610f9d57610f9c610ca1565b5b600082013567ffffffffffffffff811115610fbb57610fba610ca6565b5b610fc784828501610dc3565b91505092915050565b600081519050919050565b600082825260208201905092915050565b60005b8381101561100a578082015181840152602081019050610fef565b60008484015250505050565b600061102182610fd0565b61102b8185610fdb565b935061103b818560208601610fec565b61104481610cb5565b840191505092915050565b600081519050919050565b600082825260208201905092915050565b6000819050602082019050919050565b6000819050919050565b61108e8161107b565b82525050565b600082825260208201905092915050565b60006110b082610fd0565b6110ba8185611094565b93506110ca818560208601610fec565b6110d381610cb5565b840191505092915050565b60008115159050919050565b6110f3816110de565b82525050565b600060a0830160008301516111116000860182611085565b506020830151848203602086015261112982826110a5565b9150506040830151848203604086015261114382826110a5565b9150506060830151848203606086015261115d82826110a5565b915050608083015161117260808601826110ea565b508091505092915050565b600061118983836110f9565b905092915050565b6000602082019050919050565b60006111a98261104f565b6111b3818561105a565b9350836020820285016111c58561106b565b8060005b8581101561120157848403895281516111e2858261117d565b94506111ed83611191565b925060208a019950506001810190506111c9565b50829750879550505050505092915050565b600060c082019050818103600083015261122d8189611016565b905081810360208301526112418188611016565b905081810360408301526112558187611016565b905081810360608301526112698186611016565b9050818103608083015261127d8185611016565b905081810360a0830152611291818461119e565b9050979650505050505050565b600073ffffffffffffffffffffffffffffffffffffffff82169050919050565b60006112c98261129e565b9050919050565b6112d9816112be565b82525050565b60006020820190506112f460008301846112d0565b92915050565b611303816110de565b811461130e57600080fd5b50565b600081359050611320816112fa565b92915050565b600080600080600060a0868803121561134257611341610ca1565b5b600086013567ffffffffffffffff8111156113605761135f610ca6565b5b61136c88828901610dc3565b955050602086013567ffffffffffffffff81111561138d5761138c610ca6565b5b61139988828901610dc3565b945050604086013567ffffffffffffffff8111156113ba576113b9610ca6565b5b6113c688828901610dc3565b935050606086013567ffffffffffffffff8111156113e7576113e6610ca6565b5b6113f388828901610dc3565b925050608061140488828901611311565b9150509295509295909350565b600081905092915050565b600061142782610fd0565b6114318185611411565b9350611441818560208601610fec565b80840191505092915050565b6000611459828461141c565b915081905092915050565b7f4e487b7100000000000000000000000000000000000000000000000000000000600052602260045260246000fd5b600060028204905060018216806114ab57607f821691505b6020821081036114be576114bd611464565b5b50919050565b60008190508160005260206000209050919050565b60006020601f8301049050919050565b600082821b905092915050565b6000600883026115267fffffffffffffffffffffffffffffffffffffffffffffffffffffffffffffffff826114e9565b61153086836114e9565b95508019841693508086168417925050509392505050565b6000819050919050565b600061156d6115686115638461107b565b611548565b61107b565b9050919050565b6000819050919050565b61158783611552565b61159b61159382611574565b8484546114f6565b825550505050565b600090565b6115b06115a3565b6115bb81848461157e565b505050565b5b818110156115df576115d46000826115a8565b6001810190506115c1565b5050565b601f821115611624576115f5816114c4565b6115fe846114d9565b8101602085101561160d578190505b611621611619856114d9565b8301826115c0565b50505b505050565b600082821c905092915050565b600061164760001984600802611629565b1980831691505092915050565b60006116608383611636565b9150826002028217905092915050565b61167982610fd0565b67ffffffffffffffff81111561169257611691610cc6565b5b61169c8254611493565b6116a78282856115e3565b600060209050601f8311600181146116da57600084156116c8578287015190505b6116d28582611654565b86555061173a565b601f1984166116e8866114c4565b60005b82811015611710578489015182556001820191506020850194506020810190506116eb565b8683101561172d5784890151611729601f891682611636565b8355505b6001600288020188555050505b505050505050565b7f4e487b7100000000000000000000000000000000000000000000000000000000600052601160045260246000fd5b600061177c8261107b565b91506117878361107b565b925082820190508082111561179f5761179e611742565b5b92915050565b7f4e487b7100000000000000000000000000000000000000000000000000000000600052603260045260246000fd5b60006117df8261107b565b91507fffffffffffffffffffffffffffffffffffffffffffffffffffffffffffffffff820361181157611810611742565b5b600182019050919050565b6118258161107b565b82525050565b600060408201905081810360008301526118458185611016565b9050611854602083018461181c565b9392505050565b600060408201905081810360008301526118758185611016565b905081810360208301526118898184611016565b9050939250505056fea26469706673582212205d7b8a952f1ceeaf9bc980192efd50242a21e658e1a1a06909be8c8e5e0c9c2364736f6c63430008110033",
  "linkReferences": {},
  "deployedLinkReferences": {}
}